:100EC8007768617420746865206675636B212121D9
:030ED8000D0A0000
:080CF1008F258E248D238C2237
:100CF900E4F529F528F527F526AF25AE24AD23AC73
:100D090022AB29AA28A927A826C3120C525051E4BC
:100D1900F52DF52CF52BF52AE47F14FEFDFCAB2D02
:100D2900AA2CA92BA82AC3120C52501AE52D24016A
:100D3900FFE4352CFEE4352BFDE4352A8F2D8E2C6E
:100D49008D2BF52A80D2E5292401FFE43528FEE41C
:100D59003527FDE435268F298E288D27F52680999C
:010D69002267
:080EE700C2AF120EAFD2AF2220
:100E9600120EE77BFF7A0E79C8120DBE7FE87E033D
:090EA6007D007C00120CF180EAD1
:100EAF0053890F438920759850758DF3758BF343D4
:090EBF008780D2ACD28ED29C22B5
:080EEF008F993099FDC2992290
:040E0A008C088D09BA
:100E0E00E573702C757301F574F575AE08AF09783E
:100E1E00517C00FD120C2C8508718509720575E553
:100E2E007570020574142451F8E6F5997F0180025D
:020E3E00E4FFCF
:010E4000228F
:060DBE008B228A23892428
:100DC400E4FFE573703D757301F574F575F53475DD
:100DD40035007536258B378A38893985343A853517
:100DE4003B85363CFB7A007951120E418E718F722D
:100DF4000575E57570020574142451F8E6F5997FBC
:050E0400018002E4FF83
:010E090022C6
:03002300020D6A61
:100D6A00C0E0C0D075D000C000309804C298803D61
:100D7A00C299E573B40122C3E5759572E57495715C
:100D8A005017E572457160110575E57570020574B5
:100D9A00142451F8E6F5998014C3E5759572E57443
:100DAA0095714009757300757100757200D000D095
:040DBA00D0D0E03283
:03000000020EDB12
:0C0EDB00787FE4F6D8FD758175020E9654
:100B5C00E709F608DFFA8046E709F208DFFA803E7B
:100B6C0088828C83E709F0A3DFFA8032E309F60868
:100B7C00DFFA8078E309F208DFFA807088828C83D0
:100B8C00E309F0A3DFFA806489828A83E0A3F60884
:100B9C00DFFA805889828A83E0A3F208DFFA804C5E
:100BAC0080D280FA80C680D4806980F28033801035
:100BBC0080A680EA809A80A880DA80E280CA80339E
:100BCC0089828A83ECFAE493A3C8C582C8CCC58316
:100BDC00CCF0A3C8C582C8CCC583CCDFE9DEE780E6
:100BEC000D89828A83E493A3F608DFF9ECFAA9F065
:100BFC00EDFB2289828A83ECFAE0A3C8C582C8CCBB
:100C0C00C583CCF0A3C8C582C8CCC583CCDFEADED3
:100C1C00E880DB89828A83E493A3F208DFF980CC35
:100C2C0088F0EF60010E4E60C388F0ED2402B4042E
:100C3C000050B9F582EB2402B4040050AF232345D5
:060C4C008223900BAC7343
:100C5200EB9FF5F0EA9E42F0E99D42F0E89C45F0F8
:010C6200226F
:100E4100853740853841853942EBC53AFBEAC53BD8
:100E5100FAE9C53CF97F097843120C63F60809E900
:0E0E610070010ADFF4AB3AAA3BA93C02085C20
:100C6300BB010689828A83E0225002E722BBFE028F
:090C7300E32289828A83E49322C2
:10080000E54C2440F8E6054C22783D30070278405C
:10081000E475F001120CBB020C632000EB7F2ED2BA
:10082000008018EF540F2490D43440D4FF30040BD0
:10083000EF24BFB41A0050032461FFE54D60021598
:100840004D0550E5507002054F30070D783DE475B9
:10085000F001120CBBEF020CA9020E6F7403D20759
:100860008003E4C207F54C8B3D8A3E893FE4F54D99
:10087000F54FF550E54D60077F2012083B80F57578
:100880004EFFC201C200C202C203C205C206C208B4
:10089000120809FF700D3007057F0012084CAF5099
:1008A000AE4F22B4255FC2D5C204120809FF24D07E
:1008B000B40A00501A75F00A784D30D50508B6FF15
:1008C0000106C6A426F620D5047002D20380D924DE
:1008D000CFB41A00EF5004C2E5D204020A4CD20190
:1008E00080C6D20080C0D20280BCD2D580BAD205E8
:1008F00080B47F2012083B2002077401B54D0040F0
:10090000F1120800FF12083B020874D208D20680D8
:1009100095120800FB120800FA120800F94A4B7001
:1009200006791D7A0B7BFF20022EE54D602A7E00A2
:100930008E82758300120C7C60060EEE654E70F0A0
:10094000C2D5EBC0E0EAC0E0E9C0E0EE120A93D005
:10095000E0F9D0E0FAD0E0FB120C63FF60AAEBC034
:10096000E0EAC0E0E9C0E012083BD0E02401F9D0A1
:10097000E03400FAD0E0FBE54E0460DCD54ED980CF
:10098000877BFF7A0A798FD202809C791080027966
:1009900008C206C2088008D2D5790A8004790AC242
:1009A000D5E54E047002F54EE4FAFDFEFF12080094
:1009B000FC7B08200113120800FD7B1030000A1296
:1009C0000800FE120800FF7B20EC3382D592D55040
:1009D00013C3E43000069FFFE49EFEE42001039D64
:1009E000FDE49CFCE4CBF8C201EC700CCFCECDCC86
:1009F000E824F8F870F38017C3EF33FFEE33FEED11
:100A000033FDEC33FCEB33FB994002FB0FD8E9EBF1
:100A1000300105F8D0E0C448B201C0E00AEC4D4E08
:100A20004F78207B0070C2EAB54E0040BCC0E01297
:100A30000A95D0F0D0E0200104C4C0E0C4B201C0E7
:100A4000F0120824D0F0D5F0EB020874120CCB0998
:100A50001153098B5808E24C08DE42098F4F099761
:0F0A60004409974908F743099D550981460981C3
:100A6F00450981470B3D5008E62D08EA2E090D2B4D
:100A7F0008EE23090B200B262A08A64800000905BB
:100A8F003F3F3F00790AA2D5200314300509B91062
:100A9F00020404B9080104A2D52006025001042063
:100AAF0002689202B54D005034C0E07F2030031928
:100ABF007F30A20272067205500F120AECC202C2F8
:100ACF0006C205C2087F30800F300503E9C0E0126F
:100ADF00083B300503D0E0F9D0E0B54DCC30051719
:100AEF007F30B9100C12083B7F583004077F788095
:100AFF0003B9080312083B3002057F2D02083B7F24
:100B0F00202008F87F2B2006F322920280CF286E38
:100B1F00756C6C2900D2011208003001F8C20178FF
:100B2F004D30D50108F60208A62D5043495812083A
:100B3F00002403B405004001E4900B389312082CF5
:0D0B4F00743A12082CD203754D0402098B74
:100C7C00BB010CE58229F582E5833AF583E022502D
:100C8C0006E92582F8E622BBFE06E92582F8E22277
:0D0C9C00E58229F582E5833AF583E4932291
:100CA900BB010689828A83F0225002F722BBFE012A
:020CB900F32224
:100CBB00FAE6FB0808E6F925F0F618E6CA3AF6223A
:100CCB00D083D082F8E4937012740193700DA3A3B8
:100CDB0093F8740193F5828883E4737402936860CC
:060CEB00EFA3A3A380DFCC
:100E6F00EFB40A07740D120E7A740A309811A8990C
:100E7F00B8130CC2983098FDA899C298B811F630E3
:070E8F0099FDC299F59922BB
:00000001FF
