:0D0682004675636B205965616821212100D8
:0804AC008F0B8E0A8D098C08EC
:1004B400E4F50FF50EF50DF50CAF0BAE0AAD09AC76
:1004C40008AB0FAA0EA90DA80CC31203AE5051E439
:1004D400F513F512F511F510E47F14FEFDFCAB13D2
:1004E400AA12A911A810C31203AE501AE5132401CD
:1004F400FFE43512FEE43511FDE435108F138E123E
:100504008D11F51080D2E50F2401FFE4350EFEE4D1
:10051400350DFDE4350C8F0F8E0E8D0DF50C809985
:0105240022B4
:08069C00C2AF120633D2AF22F7
:1006140012069C120525BF01097BFF7A0679821216
:0F06240000657FE87E037D007C001204AC80F34C
:1006330053890F438920759850758DF3758BF34358
:0B0643008780D2ACD28ED29CD29922CC
:0206A400002232
:10066100E4FFFE1206A40FBF00010EEF640A4E70F4
:01067100F296
:010672002265
:0205C600AD077F
:1005C800C2AFE4FBED339290D291120661ED25E0C3
:1005D800FDA292E4334205C2911206610BBB08E406
:0405E800D2AFAF05DA
:0105EC0022EC
:0E0673000527AABBCC00010522AABBCC0001C2
:02064E008D1C01
:10065000C2931205C68F1DAF1C1205C6D293AF1DE3
:010660002277
:0C068F00C2931205C6E4FF1205C6D29308
:01069B00223C
:060593008B0E8A0F891097
:10059900C2931205C68F13E4F512E512C3951150E3
:1005A90017AB0EAA0FA91085128275830012035F7B
:0C05B900FF1205C6051280E2D293AF13BA
:0105C5002213
:06055E008B0E8A0F8910CC
:10056400C2931205C68F13E4F512E512C395115018
:1005740019E4FF1205C6AB0EAA0FA91085128275E5
:0E0584008300EF12038C051280E0D293AF13B8
:010592002246
:100525007B007A0079277511057F301205937B00D2
:100535007A0079087511057F1012055EE4FF7427AE
:100545002FF8E6FE74082FF8E6B506040FBF05EE92
:08055500BF05037F01227F00B6
:01055D00227B
:03000000020420D7
:0C042000787FE4F6D8FD75812B0204679C
:10035F00BB010CE58229F582E5833AF583E0225053
:10036F0006E92582F8E622BBFE06E92582F8E2229D
:0D037F00E58229F582E5833AF583E49322B7
:10038C00F8BB010DE58229F582E5833AF583E8F0A7
:10039C00225006E92582C8F622BBFE05E92582C853
:0203AC00F2223B
:1003AE00EB9FF5F0EA9E42F0E99D42F0E89C45F0A5
:0103BE00221C
:10000300E517240BF8E60517227808300702780B6A
:10001300E475F0011203EA0203BF2000EB7F2ED246
:10002300008018EF540F2490D43440D4FF30040BD5
:10003300EF24BFB41A0050032461FFE518600215D2
:1000430018051BE51B7002051A30070D7808E475C7
:10005300F0011203EAEF0203D80205ED7403D2079D
:100063008003E4C207F5178B088A09890AE4F518A7
:10007300F51AF51BE51860077F2012003E80F57521
:1000830019FFC201C200C202C203C205C206C208EE
:1000930012000CFF700D3007057F0012004FAF1BDD
:1000A300AE1A22B4255FC2D5C20412000CFF24D0BD
:1000B300B40A00501A75F00A781830D50508B6FF4F
:1000C3000106C6A426F620D5047002D20380D924E3
:1000D300CFB41A00EF5004C2E5D20402024FD2019A
:1000E30080C6D20080C0D20280BCD2D580BAD205ED
:1000F30080B47F2012003E2002077401B51800402F
:10010300F1120003FF12003E020077D208D20680EC
:1001130095120003FB120003FA120003F94A4B7015
:100123000679207A037BFF20022EE518602A7E00E1
:100133008E8275830012035F60060EEE651970F000
:10014300C2D5EBC0E0EAC0E0E9C0E0EE120296D00F
:10015300E0F9D0E0FAD0E0FB1203BFFF60AAEBC0E6
:10016300E0EAC0E0E9C0E012003ED0E02401F9D0AB
:10017300E03400FAD0E0FBE5190460DCD519D9803E
:10018300877BFF7A027992D202809C791080027970
:1001930008C206C2088008D2D5790A8004790AC247
:1001A300D5E519047002F519E4FAFDFEFF12000308
:1001B300FC7B08200113120003FD7B1030000A12A0
:1001C3000003FE120003FF7B20EC3382D592D5504F
:1001D30013C3E43000069FFFE49EFEE42001039D69
:1001E300FDE49CFCE4CBF8C201EC700CCFCECDCC8B
:1001F300E824F8F870F38017C3EF33FFEE33FEED16
:1002030033FDEC33FCEB33FB994002FB0FD8E9EBF6
:10021300300105F8D0E0C448B201C0E00AEC4D4E0D
:100223004F78207B0070C2EAB5190040BCC0E012D1
:100233000298D0F0D0E0200104C4C0E0C4B201C0F1
:10024300F0120027D0F0D5F0EB0200771203FA0189
:100253001453018E5800E54C00E14201924F019A7C
:0F02630044019A4900FA4301A0550184460184E1
:100272004501844703405000E92D00ED2E01102B6B
:1002820000F123010E2003292A00A94800000108D9
:100292003F3F3F00790AA2D5200314300509B91067
:1002A200020404B9080104A2D52006025001042068
:1002B20002689202B518005034C0E07F2030031962
:1002C2007F30A20272067205500F1202EFC202C202
:1002D20006C205C2087F30800F300503E9C0E01274
:1002E200003E300503D0E0F9D0E0B518CC30051758
:1002F2007F30B9100C12003E7F583004077F78809F
:1003020003B9080312003E3002057F2D02003E7F32
:10031200202008F87F2B2006F322920280CF286E3D
:10032200756C6C2900D2011200033001F8C2017809
:100332001830D50108F60200A92D50434958120081
:10034200032403B405004001E490033B9312002F01
:0D035200743A12002FD20375180402018EB8
:10042C00020614E493A3F8E493A34003F68001F2CC
:10043C0008DFF48029E493A3F85407240CC8C333D1
:10044C00C4540F4420C8834004F456800146F6DFA0
:10045C00E4800B0102040810204080900673E47EB7
:10046C00019360BCA3FF543F30E509541FFEE49395
:10047C00A360010ECF54C025E060A840B8E493A35C
:10048C00FAE493A3F8E493A3C8C582C8CAC583CA87
:10049C00F0A3C8C582C8CAC583CADFE9DEE780BE3F
:010681000078
:1003BF00BB010689828A83E0225002E722BBFE023C
:0903CF00E32289828A83E493226F
:1003D800BB010689828A83F0225002F722BBFE0104
:0203E800F322FE
:1003EA00FAE6FB0808E6F925F0F618E6CA3AF62214
:1003FA00D083D082F8E4937012740193700DA3A392
:10040A0093F8740193F5828883E4737402936860A5
:06041A00EFA3A3A380DFA5
:1005ED00EFB40A07740D1205F8740A309811A89922
:1005FD00B8130CC2983098FDA899C298B811F6306E
:07060D0099FDC299F5992245
:00000001FF
